{
  "address": "0xb600CBE97e6953E5DACE4a6EAA83f29157Ff8d5b",
  "abi": [
    {
      "inputs": [
        {
          "internalType": "address",
          "name": "_tokenAddress",
          "type": "address"
        },
        {
          "internalType": "address",
          "name": "_feeCollector",
          "type": "address"
        }
      ],
      "stateMutability": "nonpayable",
      "type": "constructor"
    },
    {
      "anonymous": false,
      "inputs": [
        {
          "indexed": true,
          "internalType": "address",
          "name": "employer",
          "type": "address"
        },
        {
          "indexed": true,
          "internalType": "address",
          "name": "payrollContract",
          "type": "address"
        },
        {
          "indexed": true,
          "internalType": "address",
          "name": "nftContract",
          "type": "address"
        }
      ],
      "name": "PayrollCreated",
      "type": "event"
    },
    {
      "inputs": [
        {
          "internalType": "uint256",
          "name": "",
          "type": "uint256"
        }
      ],
      "name": "allContracts",
      "outputs": [
        {
          "internalType": "address",
          "name": "",
          "type": "address"
        }
      ],
      "stateMutability": "view",
      "type": "function"
    },
    {
      "inputs": [],
      "name": "createPayroll",
      "outputs": [
        {
          "internalType": "address",
          "name": "",
          "type": "address"
        },
        {
          "internalType": "address",
          "name": "",
          "type": "address"
        }
      ],
      "stateMutability": "payable",
      "type": "function"
    },
    {
      "inputs": [],
      "name": "deploymentFee",
      "outputs": [
        {
          "internalType": "uint256",
          "name": "",
          "type": "uint256"
        }
      ],
      "stateMutability": "view",
      "type": "function"
    },
    {
      "inputs": [
        {
          "internalType": "address",
          "name": "",
          "type": "address"
        },
        {
          "internalType": "uint256",
          "name": "",
          "type": "uint256"
        }
      ],
      "name": "employerContracts",
      "outputs": [
        {
          "internalType": "address",
          "name": "",
          "type": "address"
        }
      ],
      "stateMutability": "view",
      "type": "function"
    },
    {
      "inputs": [],
      "name": "feeCollector",
      "outputs": [
        {
          "internalType": "address",
          "name": "",
          "type": "address"
        }
      ],
      "stateMutability": "view",
      "type": "function"
    },
    {
      "inputs": [],
      "name": "getAllContracts",
      "outputs": [
        {
          "internalType": "address[]",
          "name": "",
          "type": "address[]"
        }
      ],
      "stateMutability": "view",
      "type": "function"
    },
    {
      "inputs": [
        {
          "internalType": "address",
          "name": "employer",
          "type": "address"
        }
      ],
      "name": "getEmployerContracts",
      "outputs": [
        {
          "internalType": "address[]",
          "name": "",
          "type": "address[]"
        }
      ],
      "stateMutability": "view",
      "type": "function"
    },
    {
      "inputs": [
        {
          "internalType": "uint256",
          "name": "newFee",
          "type": "uint256"
        }
      ],
      "name": "setDeploymentFee",
      "outputs": [],
      "stateMutability": "nonpayable",
      "type": "function"
    },
    {
      "inputs": [],
      "name": "tokenAddress",
      "outputs": [
        {
          "internalType": "address",
          "name": "",
          "type": "address"
        }
      ],
      "stateMutability": "view",
      "type": "function"
    }
  ],
  "transactionHash": "0x6ec11cbaf619756b00a491353a765edf678c402923e924a81b1f1507ea4c7fd3",
  "args": [
    "0x44cADD9F4f7Ee3c0cbAb26c553Ab454c856d4EDD",
    "0x0017a67D86380C7cF6CC98Aa182936da4281C6BD"
  ],
  "numDeployments": 3,
  "solcInputHash": "8c32a95586c270e6ec48e94690702924",
  "bytecode": "0x60c03461009957601f614bc038819003918201601f19168301916001600160401b0383118484101761009d57808492604094855283398101031261009957610052602061004b836100b1565b92016100b1565b9060805260a052662386f26fc100005f55604051614afa90816100c6823960805181818161025d0152610375015260a0518181816101960152818161021801526102a70152f35b5f80fd5b634e487b7160e01b5f52604160045260245ffd5b51906001600160a01b03821682036100995756fe6080806040526004361015610012575f80fd5b5f905f3560e01c90816318d3ce9614610618575080633121d6f41461058d5780634d3a2b161461028c5780639d76ea5814610247578063c415b95c14610202578063d002462b14610182578063e54e26b914610101578063f2cff57f146100e45763f61cd86c14610081575f80fd5b346100e15760403660031901126100e15761009a6106d3565b6001600160a01b03168152600160205260408120805460243592908310156100e15760206100c884846106e9565b905460405160039290921b1c6001600160a01b03168152f35b80fd5b50346100e157806003193601126100e15760209054604051908152f35b50346100e15760203660031901126100e157600435906002548210156100e15760025482101561016e57600281527f405787fa12a823e0f2b7631cc41b3ba8828b3321ca811111fa75cd3aa3bb5ace9091015460405160039290921b1c6001600160a01b03168152602090f35b634e487b7160e01b81526032600452602490fd5b50346100e15760203660031901126100e1577f00000000000000000000000000000000000000000000000000000000000000006001600160a01b031633036101cc57600435815580f35b60405162461bcd60e51b815260206004820152600e60248201526d139bdd08185d5d1a1bdc9a5e995960921b6044820152606490fd5b50346100e157806003193601126100e1576040517f00000000000000000000000000000000000000000000000000000000000000006001600160a01b03168152602090f35b50346100e157806003193601126100e1576040517f00000000000000000000000000000000000000000000000000000000000000006001600160a01b03168152602090f35b505f3660031901126104f0575f543410610548575f808080347f00000000000000000000000000000000000000000000000000000000000000006001600160a01b03165af13d15610543573d67ffffffffffffffff81116104f457604051906102ff601f8201601f191660200183610712565b81525f60203d92013e5b1561050857604051612ad38082019082821067ffffffffffffffff8311176104f457602091839161073583393381520301905ff080156104e55760018060a01b0316906040516118bd8082019082821067ffffffffffffffff8311176104f457606091839161320883397f00000000000000000000000000000000000000000000000000000000000000006001600160a01b03168152336020820152604081018690520301905ff080156104e5576001600160a01b031691803b156104f057604051637e51dad560e11b8152600481018490525f8160248183865af180156104e5576104d0575b50338252600160205260408220805490600160401b8210156104bc579061041c916001820181556106e9565b81546001600160a01b0360039290921b91821b19169085901b17905560025492600160401b8410156104a85761045c8460016040960160025560026106e9565b81549060031b9083821b9160018060a01b03901b191617905581818551947f13681314b62e70ef05c1e0d1e88b6d7af697de678c8fd8351f18f7f0129396d6339180a482526020820152f35b634e487b7160e01b83526041600452602483fd5b634e487b7160e01b84526041600452602484fd5b6104dd9192505f90610712565b5f905f6103f0565b6040513d5f823e3d90fd5b5f80fd5b634e487b7160e01b5f52604160045260245ffd5b60405162461bcd60e51b8152602060048201526013602482015272119959481d1c985b9cd9995c8819985a5b1959606a1b6044820152606490fd5b610309565b60405162461bcd60e51b815260206004820152601b60248201527f496e73756666696369656e74206465706c6f796d656e742066656500000000006044820152606490fd5b346104f05760203660031901126104f0576001600160a01b036105ae6106d3565b165f52600160205260405f206040519081602082549182815201915f5260205f20905f5b8181106105f9576105f5856105e981870382610712565b60405191829182610691565b0390f35b82546001600160a01b03168452602090930192600192830192016105d2565b346104f0575f3660031901126104f057600254808252602082019060025f527f405787fa12a823e0f2b7631cc41b3ba8828b3321ca811111fa75cd3aa3bb5ace905f5b818110610672576105f5856105e981870382610712565b82546001600160a01b031684526020909301926001928301920161065b565b60206040818301928281528451809452019201905f5b8181106106b45750505090565b82516001600160a01b03168452602093840193909201916001016106a7565b600435906001600160a01b03821682036104f057565b80548210156106fe575f5260205f2001905f90565b634e487b7160e01b5f52603260045260245ffd5b90601f8019910116810190811067ffffffffffffffff8211176104f45760405256fe60806040523461033d57612ad36020813803918261001c81610341565b93849283398101031261033d57516001600160a01b0381169081900361033d576100466040610341565b90600b82526a04e5a5020506179736c69760ac1b60208301526100696040610341565b600781526604e5a50534c49560cc1b602082015282519091906001600160401b038111610251575f54600181811c91168015610333575b602082101461023357601f81116102d1575b506020601f821160011461027057819293945f92610265575b50508160011b915f199060031b1c1916175f555b81516001600160401b03811161025157600154600181811c91168015610247575b602082101461023357601f81116101d0575b50602092601f821160011461016f57928192935f92610164575b50508160011b915f199060031b1c1916176001555b600780546001600160a01b03191691909117905560405161276c90816103678239f35b015190505f8061012c565b601f1982169360015f52805f20915f5b8681106101b857508360019596106101a0575b505050811b01600155610141565b01515f1960f88460031b161c191690555f8080610192565b9192602060018192868501518155019401920161017f565b60015f527fb10e2d527612073b26eecdfd717e6a320cf44b4afac2b0732d9fcbe2b7fa0cf6601f830160051c81019160208410610229575b601f0160051c01905b81811061021e5750610112565b5f8155600101610211565b9091508190610208565b634e487b7160e01b5f52602260045260245ffd5b90607f1690610100565b634e487b7160e01b5f52604160045260245ffd5b015190505f806100cb565b601f198216905f8052805f20915f5b8181106102b9575095836001959697106102a1575b505050811b015f556100df565b01515f1960f88460031b161c191690555f8080610294565b9192602060018192868b01518155019401920161027f565b5f80527f290decd9548b62a8d60345a988386fc84ba6bc95484008f6362f93160ef3e563601f830160051c81019160208410610329575b601f0160051c01905b81811061031e57506100b2565b5f8155600101610311565b9091508190610308565b90607f16906100a0565b5f80fd5b6040519190601f01601f191682016001600160401b038111838210176102515760405256fe60a06040526004361015610011575f80fd5b5f3560e01c806301d1971914610d6257806301ffc9a714610cf457806306fdde0314610c525780630754617214610c2a578063081812fc14610bee578063095ea7b314610b0457806323b872dd14610aee57806342842e0e14610ac85780636352211e14610a985780636dcee4ca14610a7957806370a0823114610a2857806395d89b411461095e578063a22cb465146108aa578063a3f4df7e1461088f578063ae200e7914610867578063b88d4fde1461080d578063ba775b5e146105c2578063baa66e8214610477578063c87b56dd146102d2578063ca69fd201461023f578063e985e9c5146101e8578063f76f8d781461019b5763fca3b5aa14610116575f80fd5b346101975760203660031901126101975761012f610f34565b600654906001600160a01b03821661015d576001600160a01b03166001600160a01b03199190911617600655005b60405162461bcd60e51b8152602060048201526012602482015271135a5b9d195c88185b1c9958591e481cd95d60721b6044820152606490fd5b5f80fd5b34610197575f366003190112610197576101e46040516101bc604082610fda565b600781526604e5a50534c49560cc1b6020820152604051918291602083526020830190610f60565b0390f35b3461019757604036600319011261019757610201610f34565b610209610f4a565b9060018060a01b03165f52600560205260405f209060018060a01b03165f52602052602060ff60405f2054166040519015158152f35b34610197576020366003190112610197576004355f52600960205260405f2060018060a01b03815416906001810154906002810154610288600460ff60038501541693016110af565b926040519485526020850152604084015260028110156102be5782916101e491606084015260a0608084015260a0830190610f60565b634e487b7160e01b5f52602160045260245ffd5b34610197576020366003190112610197576101e46020610463603d610418836104136002606760043561030481612071565b508285610310836111f3565b602a8261032d610327610321611018565b97612454565b936125c1565b926040519a8b97693d913730b6b2911d101160b11b828a0152805191829101858a015e87019061202360f01b84830152805192839101602c83015e0101907f222c20226465736372697074696f6e223a2022436f6e666964656e7469616c20848301527f506179736c6970204e465420706f7765726564206279204e7a757a6f2050617960228301527f222c2022696d616765223a2022646174613a696d6167652f7376672b786d6c3b60428301526618985cd94d8d0b60ca1b6062830152805192839101606983015e010161227d60f01b838201520301601d19810184520182610fda565b6125c1565b6040519384917f646174613a6170706c69636174696f6e2f6a736f6e3b6261736536342c000000828401528051918291018484015e81015f838201520301601f198101835282610fda565b604051918291602083526020830190610f60565b3461019757602036600319011261019757610490610f34565b6008545f916001600160a01b0316825b82811061058857506104ca6104b484611f68565b936104c26040519586610fda565b808552611f68565b602084019290601f19013684375f915f5b828110610526578486604051918291602083019060208452518091526040830191905f5b81811061050d575050500390f35b82518452859450602093840193909201916001016104ff565b5f818152600260205260409020546001600160a01b0316821461054c575b6001016104db565b9285518110156105745761056c8185602060019460051b8a01015261118c565b939050610544565b634e487b7160e01b5f52603260045260245ffd5b5f818152600260205260409020546001600160a01b031682146105ae575b6001016104a0565b926105ba60019161118c565b9390506105a6565b34610197576060366003190112610197576105db610f34565b6044359067ffffffffffffffff8211610197573660238301121561019757816004013567ffffffffffffffff81116101975736602482850101116101975761062e60018060a01b0360065416331461114f565b6008549161063b8361118c565b6008556106488382611f80565b6040519061065582610fbe565b60018060a01b031681526020810193602435855261068760408301915f83526060840194600186526024369201611041565b608083019081525f858152600960205260409020925183546001600160a01b0319166001600160a01b0391909116178355945160018301555160028083019190915591519160038201908310156102be5760049260ff801983541691161790550191519081519267ffffffffffffffff84116107f9576107078154611077565b93601f85116107b4575b602094508493601f82116001146107555793819293945f9261074a575b50508160011b915f199060031b1c19161790555b604051908152f35b01519050858061072e565b601f19821694835f52805f20915f5b87811061079d575083600195969710610785575b505050811b019055610742565b01515f1960f88460031b161c19169055858080610778565b919288600181928685015181550194019201610764565b815f5260205f20601f820160051c810195602083106107ef575b601f0160051c01945b8581106107e45750610711565b5f81556001016107d7565b90955085906107ce565b634e487b7160e01b5f52604160045260245ffd5b3461019757608036600319011261019757610826610f34565b5061082f610f4a565b5060643567ffffffffffffffff8111610197573660238201121561019757610861903690602481600401359101611041565b506111ae565b34610197575f366003190112610197576007546040516001600160a01b039091168152602090f35b34610197575f366003190112610197576101e4610463611018565b34610197576040366003190112610197576108c3610f34565b6024359081151580920361019757331561094b576001600160a01b031690811561093857335f52600560205260405f20825f5260205260405f2060ff1981541660ff83161790556040519081527f17307eab39ab6107e8899845ad3d59bd9653f200f220920489ca2b5937696c3160203392a3005b50630b61174360e31b5f5260045260245ffd5b63a9fbf51f60e01b5f525f60045260245ffd5b34610197575f366003190112610197576040515f60015461097e81611077565b8084529060018116908115610a0457506001146109a6575b6101e48361046381850382610fda565b60015f9081527fb10e2d527612073b26eecdfd717e6a320cf44b4afac2b0732d9fcbe2b7fa0cf6939250905b8082106109ea57509091508101602001610463610996565b9192600181602092548385880101520191019092916109d2565b60ff191660208086019190915291151560051b840190910191506104639050610996565b34610197576020366003190112610197576001600160a01b03610a49610f34565b168015610a66575f526003602052602060405f2054604051908152f35b6322718ad960e21b5f525f60045260245ffd5b34610197576020366003190112610197576101e46104636004356111f3565b34610197576020366003190112610197576020610ab6600435612071565b6040516001600160a01b039091168152f35b3461019757610ad636610f84565b5050505f604051610ae8602082610fda565b526111ae565b3461019757610afc36610f84565b5050506111ae565b3461019757604036600319011261019757610b1d610f34565b602435610b2981612071565b33151580610bdb575b80610bae575b610b9b5781906001600160a01b0384811691167f8c5be1e5ebec7d5bd14f71427d1e84f3dd0314c0f7b2291e5b200ac8c7c3b9255f80a45f90815260046020526040902080546001600160a01b0319166001600160a01b03909216919091179055005b63a9fbf51f60e01b5f523360045260245ffd5b506001600160a01b0381165f90815260056020908152604080832033845290915290205460ff1615610b38565b506001600160a01b038116331415610b32565b3461019757602036600319011261019757600435610c0b81612071565b505f526004602052602060018060a01b0360405f205416604051908152f35b34610197575f366003190112610197576006546040516001600160a01b039091168152602090f35b34610197575f366003190112610197576040515f5f54610c7181611077565b8084529060018116908115610a045750600114610c98576101e48361046381850382610fda565b5f8080527f290decd9548b62a8d60345a988386fc84ba6bc95484008f6362f93160ef3e563939250905b808210610cda57509091508101602001610463610996565b919260018160209254838588010152019101909291610cc2565b346101975760203660031901126101975760043563ffffffff60e01b8116809103610197576020906380ac58cd60e01b8114908115610d51575b8115610d40575b506040519015158152f35b6301ffc9a760e01b14905082610d35565b635b5e139f60e01b81149150610d2e565b3461019757606036600319011261019757610d7b610f34565b610d9060018060a01b0360065416331461114f565b600854610d9c8161118c565b600855610da98183611f80565b60405191610db683610fbe565b60018060a01b03168252602082019060243582526040830192604435845260608101905f825260209460405194610ded8787610fda565b5f808752608084019687528581526009885260409020925183546001600160a01b0319166001600160a01b03919091161783555160018301555160028083019190915591519160038201908310156102be5760049260ff8019835416911617905501915191825167ffffffffffffffff81116107f957610e6d8254611077565b601f8111610ef1575b508493601f8211600114610eaa5793819293945f9261074a5750508160011b915f199060031b1c1916179055604051908152f35b601f19821694835f52865f20915f5b88888210610edb5750508360019596971061078557505050811b019055610742565b6001849582939585015181550194019201610eb9565b825f52855f20601f830160051c810191878410610f2a575b601f0160051c01905b818110610f1f5750610e76565b5f8155600101610f12565b9091508190610f09565b600435906001600160a01b038216820361019757565b602435906001600160a01b038216820361019757565b805180835260209291819084018484015e5f828201840152601f01601f1916010190565b6060906003190112610197576004356001600160a01b038116810361019757906024356001600160a01b0381168103610197579060443590565b60a0810190811067ffffffffffffffff8211176107f957604052565b90601f8019910116810190811067ffffffffffffffff8211176107f957604052565b67ffffffffffffffff81116107f957601f01601f191660200190565b60405190611027604083610fda565b600b82526a04e5a5020506179736c69760ac1b6020830152565b92919261104d82610ffc565b9161105b6040519384610fda565b829481845281830111610197578281602093845f960137010152565b90600182811c921680156110a5575b602083101461109157565b634e487b7160e01b5f52602260045260245ffd5b91607f1691611086565b9060405191825f8254926110c284611077565b808452936001811690811561112d57506001146110e9575b506110e792500383610fda565b565b90505f9291925260205f20905f915b8183106111115750509060206110e7928201015f6110da565b60209193508060019154838589010152019101909184926110f8565b9050602092506110e794915060ff191682840152151560051b8201015f6110da565b1561115657565b60405162461bcd60e51b815260206004820152600e60248201526d139bdd08185d5d1a1bdc9a5e995960921b6044820152606490fd5b5f19811461119a5760010190565b634e487b7160e01b5f52601160045260245ffd5b60405162461bcd60e51b815260206004820152601b60248201527f536f756c626f756e643a206e6f6e2d7472616e7366657261626c6500000000006044820152606490fd5b805f52600960205260405f20906040519061120d82610fbe565b60018060a01b038354168252600183015490602083019182526002840154936040840194855260ff60038201541690606085019160028110156102be578252611258906004016110af565b9060808501918252805160028110156102be57611f425760405161127d604082610fda565b600681526553414c41525960d01b6020820152925b815160028110156102be57611f17576112ce6040516112b2604082610fda565b60078152662331306239383160c81b6020820152975b516120a5565b936020976040516112df8a82610fda565b5f815293519260028410156102be5789978896600188961480611f0c575b611e0e575b5084929183809281600160a01b600190036007541661132090612195565b9d51611334906001600160a01b0316612195565b915161133f90612454565b9361134990612454565b9d60405160805281608051017f3c7376672077696474683d2234303022206865696768743d223530302220766990526080516040017f6577426f783d2230203020343030203530302220786d6c6e733d22687474703a90526080516060017f2f2f7777772e77332e6f72672f323030302f737667223e00000000000000000090526080516077017f3c726563742077696474683d2234303022206865696768743d2235303022206690526080516097017f696c6c3d2223303930393062222072783d223230222f3e000000000000000000905260805160ae017f3c7265637420783d22312220793d2231222077696474683d2233393822206865905260805160ce017f696768743d22343938222066696c6c3d226e6f6e6522207374726f6b653d2223905260805160ee017f32373237326122207374726f6b652d77696474683d2231222072783d22313922905260805161010e0161179f60f11b9052608051610110017f3c7465787420783d2234302220793d2236302220666f6e742d66616d696c793d9052608051610130017f22417269616c2220666f6e742d73697a653d2232302220666f6e742d776569679052608051610150017f68743d22626f6c64222066696c6c3d2223313062393831223e4e5a50205061799052608051610170016a39b634b81e17ba32bc3a1f60a91b905260805161017b017f3c7265637420783d223239302220793d223432222077696474683d2238352220905260805161019b017f6865696768743d223234222066696c6c3d2223336633663436222072783d22319052631911179f60e11b6080516101bb01526080516101bf017f3c7465787420783d223330322220793d2235382220666f6e742d66616d696c7990526080516101df017f3d22417269616c2220666f6e742d73697a653d2231302220666f6e742d77656990526080516101ff017f6768743d22626f6c64222066696c6c3d2223663366346636223e434f4e464944905260805161021f016c22a72a24a0a61e17ba32bc3a1f60991b905260805161022c017f3c7465787420783d2234302220793d223131302220666f6e742d66616d696c79905260805161024c015f5160206126f75f395f51905f5290527531b099b0b3111f22b6b83637bcb2b91e17ba32bc3a1f60511b60805161026c0152608051610282017f3c7465787420783d2234302220793d223133302220666f6e742d66616d696c7990526080516102a2015f5160206127175f395f51905f5290526080516102c2017933b43a1e913137b63211103334b6361e9111b319b31a331b111f60311b90528051918291016080516102dc015e608051661e17ba32bc3a1f60c91b6102dc92909101918201527f3c7465787420783d2234302220793d223136302220666f6e742d66616d696c796102e38201525f5160206126f75f395f51905f526103038201527531b099b0b3111f22b6b83637bcb2b29e17ba32bc3a1f60511b6103238201527f3c7465787420783d2234302220793d223138302220666f6e742d66616d696c796103398201525f5160206127175f395f51905f526103598201527933b43a1e913137b63211103334b6361e9111b319b31a331b111f60311b610379820152815192909183910161039383015e661e17ba32bc3a1f60c91b61039392909101918201527f3c7465787420783d223234302220793d223131302220666f6e742d66616d696c61039a8201527f793d22417269616c2220666f6e742d73697a653d223132222066696c6c3d22236103ba820152721cb1b099b0b3111f2230ba329e17ba32bc3a1f60691b6103da8201527f3c7465787420783d223234302220793d223133302220666f6e742d66616d696c6103ed8201527f793d22417269616c2220666f6e742d73697a653d2231342220666f6e742d776561040d8201527f696768743d22626f6c64222066696c6c3d2223663366346636223e000000000061042d8201528151926102dc8201928492910190610448015e0160b7019060b58201661e17ba32bc3a1f60c91b905260bc82017f3c7265637420783d2234302220793d22323130222077696474683d22373022209052713432b4b3b43a1e91191a11103334b6361e9160711b60dc83015280519283910160ee83015e0160b501906a1110393c1e91189911179f60a91b6039830152604482017f3c7465787420783d2235322220793d223232362220666f6e742d66616d696c799052606482017f3d22417269616c2220666f6e742d73697a653d2231302220666f6e742d7765699052608482017f6768743d22626f6c64222066696c6c3d2223666666666666223e0000000000009052805192839101609e83015e016039019060658201661e17ba32bc3a1f60c91b9052805192839101606c83015e7f3c7465787420783d2234302220793d223332302220666f6e742d66616d696c79606c92909101918201525f5160206126f75f395f51905f52608c8201527331b099b0b3111f20b6b7bab73a1e17ba32bc3a1f60611b60ac8201527f3c7465787420783d2234302220793d223334302220666f6e742d66616d696c7960c08201525f5160206127175f395f51905f5260e08201527f6768743d22626f6c64222066696c6c3d2223663366346636223ee29688e296886101008201527fe29688e29688e29688e29688e29688e2968820507269766174653c2f74657874610120820152601f60f91b6101408201527f3c7465787420783d223234302220793d223231302220666f6e742d66616d696c6101418201527f793d22417269616c2220666f6e742d73697a653d223132222066696c6c3d22236101618201527f396361336166223e50617920506572696f643c2f746578743e000000000000006101818201527f3c7465787420783d223234302220793d223233302220666f6e742d66616d696c61019a8201527f793d22417269616c2220666f6e742d73697a653d2231342220666f6e742d77656101ba8201527f696768743d22626f6c64222066696c6c3d2223663366346636223e00000000006101da820152815192606582019284929101906101f5015e661e17ba32bc3a1f60c91b61019092909101918201527f3c6c696e652078313d223430222079313d22343430222078323d2233363022206101978201527f79323d2234343022207374726f6b653d222332373237326122207374726f6b656101b78201526b16bbb4b23a341e911891179f60a11b6101d78201527f3c7465787420783d2234302220793d223437302220666f6e742d66616d696c796101e38201527f3d22417269616c2220666f6e742d73697a653d223130222066696c6c3d2223376102038201527f3137313761223e506f7765726564206279204e7a757a6f2050617920e280a2206102238201527f46756c6c7920486f6d6f6d6f727068696320456e6372797074696f6e3c2f7465610243820152623c3a1f60e91b6102638201527f3c7465787420783d223336302220793d223437302220666f6e742d66616d696c6102668201527f793d22417269616c2220666f6e742d73697a653d2231322220666f6e742d77656102868201527f696768743d22626f6c64222066696c6c3d22233366336634362220746578742d6102a68201526d616e63686f723d22656e64223e2360901b6102c6820152815192600782019284929101906102d4015e661e17ba32bc3a1f60c91b6102cd9290910191820152651e17b9bb339f60d11b6102d4820152608080516102ba92819003928301905251611e08916102da0190610fda565b60805190565b85808095949281949950600760cc611f0192516040519485917f3c7465787420783d2234302220793d223236302220666f6e742d66616d696c79828401525f5160206126f75f395f51905f5260408401527131b099b0b3111f26b2b6b79e17ba32bc3a1f60711b60608401527f3c7465787420783d2234302220793d223238302220666f6e742d66616d696c7960728401525f5160206127175f395f51905f5260928401527933b43a1e913137b63211103334b6361e9111b319b31a331b111f60311b60b28401528051918291018484015e8101661e17ba32bc3a1f60c91b838201520301601819810184520182610fda565b979250509192611302565b5080515115156112fd565b6112ce604051611f28604082610fda565b600781526611b31a9cb2983160c91b6020820152976112c8565b604051611f50604082610fda565b6005815264424f4e555360d81b602082015292611292565b67ffffffffffffffff81116107f95760051b60200190565b6001600160a01b031690811561205e575f818152600260205260409020546001600160a01b0316801515929083612025575b815f52600360205260405f2060018154019055825f52600260205260405f20826bffffffffffffffffffffffff60a01b8254161790557fddf252ad1be2c89b69c2b068fc378daa952ba7f163c4a11628f55a4df523b3ef5f80a461201257565b6339e3563760e11b5f525f60045260245ffd5b825f52600460205260405f206bffffffffffffffffffffffff60a01b8154169055805f52600360205260405f205f198154019055611fb2565b633250574960e11b5f525f60045260245ffd5b5f818152600260205260409020546001600160a01b0316908115612093575090565b637e27328960e01b5f5260045260245ffd5b62093a80811461215f576212750081146121385762278d00811461211257156120ec576040516120d6604082610fda565b6006815265437573746f6d60d01b602082015290565b6040516120fa604082610fda565b600881526727b731b296b7b33360c11b602082015290565b50604051612121604082610fda565b60078152664d6f6e74686c7960c81b602082015290565b50604051612147604082610fda565b600881526742697765656b6c7960c01b602082015290565b5060405161216e604082610fda565b60068152655765656b6c7960d01b602082015290565b908151811015610574570160200190565b6001600160a01b0316806121a9602a610ffc565b906121b76040519283610fda565b602a82526121c5602a610ffc565b602083019390601f190136853782511561057457603084538251600110156105745760218301916078835360295b6001811161241357506123fc575060405192612210604085610fda565b600d8452602080850191903683378351156105745760ff60f81b9051165f1a9084511561057457538151600110156105745760ff60f81b9051165f1a8251600110156105745760218301538051600210156105745760ff60f81b6022820151165f1a8251600210156105745760228301538051600310156105745760ff60f81b6023820151165f1a8251600310156105745760238301538051600410156105745760ff60f81b6024820151165f1a8251600410156105745760248301538051600510156105745760ff60f81b6025820151165f1a82516005101561057457602583015381516006101561057457602e602683015381516007101561057457602e602783015381516008101561057457602e60288301538051600319810190811161119a576001600160f81b0319906123489083612184565b51165f1a8251600910156105745760298301538051600219810190811161119a576001600160f81b03199061237d9083612184565b51165f1a8251600a101561057457602a8301538051600119810190811161119a576001600160f81b0319906123b29083612184565b51165f1a8251600b101561057457602b83015380515f19810190811161119a576001600160f81b0319916123e69190612184565b51165f1a8151600c101561057457602c82015390565b63e22e27eb60e01b5f52600452601460245260445ffd5b90600f81166010811015610574576f181899199a1a9b1b9c1cb0b131b232b360811b901a6124418387612184565b5360041c90801561119a575f19016121f3565b805f9172184f03e93ff9f4daa797ed6e38ed64bf6a1f0160401b82101561259e575b806d04ee2d6d415b85acef8100000000600a921015612583575b662386f26fc1000081101561256f575b6305f5e10081101561255e575b61271081101561254f575b6064811015612541575b1015612536575b600a602160018401936124db85610ffc565b946124e96040519687610fda565b8086526124f8601f1991610ffc565b013660208701378401015b5f1901916f181899199a1a9b1b9c1cb0b131b232b360811b8282061a835304801561253157600a9091612503565b505090565b6001909101906124c9565b6064600291049301926124c2565b612710600491049301926124b8565b6305f5e100600891049301926124ad565b662386f26fc10000601091049301926124a0565b6d04ee2d6d415b85acef810000000060209104930192612490565b506040915072184f03e93ff9f4daa797ed6e38ed64bf6a1f0160401b8104612476565b908151156126e05781516002810180911161119a5760039004600281901b91906001600160fe1b0381160361119a57604051917f4142434445464748494a4b4c4d4e4f505152535455565758595a616263646566601f527f6768696a6b6c6d6e6f707172737475767778797a303132333435363738392b2f603f52602083018480518101602081018051915f82525b8089106126a4575060209596975090600392915251068060011461268f57600214612682575b50808452830101604052565b603d905f1901535f612676565b50603d90815f1982015360011901535f612676565b939760036004910198603f8a51818160121c165183538181600c1c16516001840153818160061c16516002840153165160038201530193612650565b90506040516126f0602082610fda565b5f81529056fe3d22417269616c2220666f6e742d73697a653d223132222066696c6c3d2223393d22417269616c2220666f6e742d73697a653d2231342220666f6e742d776569a2646970667358221220bdf406fc0e8baac71b95363b5453dff2b10cdea3de54a74eb8d6ccbed508beb664736f6c634300081c00336080604052346102c057604051601f6118bd38819003918201601f19168301916001600160401b038311848410176102c4578084926060946040528339810103126102c05761004d816102f7565b610065604061005e602085016102f7565b93016102f7565b9161006e61030b565b50466001036101dc5761007f61030b565b506100886102d8565b73ca2e8f1f656cd25c01f05d0b243ab1ecd4a8ffb6815273d82385dada1ae3e969447f20a3164f6213100e7560208201527377627828a55156b04ac0dc0eb30467f1a552bb0360408201525b80517f9e7b61f58c47dc699ac88507c4f5bb9f121c03808c5676a8078fe583e464970080546001600160a01b03199081166001600160a01b039384161790915560208301517f9e7b61f58c47dc699ac88507c4f5bb9f121c03808c5676a8078fe583e4649701805483169184169190911790556040928301517f9e7b61f58c47dc699ac88507c4f5bb9f121c03808c5676a8078fe583e46497028054831691841691909117905560017f9b779b17422d0df92223018b32b4d1fa46e071723d6817e2486d003becc55f008190555f8054831695841695909517909455835481169482169490941790925560028054909316939091169290921790555161159790816103268239f35b4662aa36a703610247576101ee61030b565b506101f76102d8565b73f0ffdc93b7e186bc2f8cb3daa75d86d1930a433d81527392c920834ec8941d2c77d188936e1f7a6f49c127602082015273be0e383937d564d7ff0bc3b46c51f0bf8d5c311a60408201526100d4565b46617a69036102b15761025861030b565b506102616102d8565b7350157cffd6bbfa2dece204a89ec419c23ef5755d815273e3a9105a3a932253a70f126eb1e3b589c643dd24602082015273901f8942346f7ab3a01f6d7613119bca447bb03060408201526100d4565b6373cac13b60e01b5f5260045ffd5b5f80fd5b634e487b7160e01b5f52604160045260245ffd5b60405190606082016001600160401b038111838210176102c457604052565b51906001600160a01b03821682036102c057565b6103136102d8565b905f82525f60208301525f604083015256fe6080806040526004361015610012575f80fd5b5f905f3560e01c90816310e7f7c614610fb0575080632839b84014610f7f5780632d43970414610f645780634739326b14610f2257806347ccca0214610efa5780634abefa3614610e32578063786c91ef14610bf35780637ea7210e14610a6c5780638927b03014610a4a5780638c286e8b14610a2d5780639047bf5814610a10578063ae200e79146109e9578063c6c96cc81461092a578063d108177a146107ab578063e2d849bb1461072e578063e8c97805146104be578063ea66543f1461047f578063ed86193614610425578063f0dc7ad6146103ec578063f2e80483146101305763fc0c546a14610105575f80fd5b3461012d578060031936011261012d576001546040516001600160a01b039091168152602090f35b80fd5b503461012d578060031936011261012d5761015560018060a01b03825416331461106d565b60027f9b779b17422d0df92223018b32b4d1fa46e071723d6817e2486d003becc55f0054146103dd5760027f9b779b17422d0df92223018b32b4d1fa46e071723d6817e2486d003becc55f005560075480159081156103b1575b501561036c5742600855600554815b81811061021d575060407f890f21639f53fca3f95c54c11d35655ab7f75bac717511101e4d117c812f961c918151904282526020820152a160017f9b779b17422d0df92223018b32b4d1fa46e071723d6817e2486d003becc55f005580f35b61022681610fca565b9054600391821b1c6001600160a01b0390811680865260209290925260408520546001549293926102589216906113a8565b50600154828552600360209081526040808720549051637d32e7bd60e01b81526001600160a01b038087166004830152602482019290925292839160449183918a91165af1801561036157610335575b506002546007546040516301d1971960e01b8152600481019490945242602485015260448401526020908390606490829088906001600160a01b03165af191821561032a576001926102fc575b50016101be565b61031c9060203d8111610323575b61031481836110a8565b810190611165565b505f6102f5565b503d61030a565b6040513d86823e3d90fd5b6103559060203d811161035a575b61034d81836110a8565b81019061114d565b6102a8565b503d610343565b6040513d87823e3d90fd5b60405162461bcd60e51b815260206004820152601760248201527f506179726f6c6c20636f6f6c646f776e206163746976650000000000000000006044820152606490fd5b90506008549081018091116103c9574210155f6101af565b634e487b7160e01b82526011600452602482fd5b633ee5aeb560e01b8152600490fd5b503461012d57602036600319011261012d576020906040906001600160a01b03610414610fe2565b168152600383522054604051908152f35b503461012d57602036600319011261012d577f583d8b24c5439ab7d810e51e37e8db41ba66f1168fd7b752ceae0c7681c5272c602060043561047160018060a01b03855416331461106d565b80600755604051908152a180f35b503461012d57602036600319011261012d5760209060ff906040906001600160a01b036104aa610fe2565b168152600484522054166040519015158152f35b5034610677575f366003190112610677576104e360018060a01b035f5416331461106d565b6001546040516370a0823160e01b815230600482015290602090829060249082906001600160a01b03165afa9081156106cf575f916106fc575b50610526611442565b81156106ec575b80156106da575b602090606460018060a01b037f9e7b61f58c47dc699ac88507c4f5bb9f121c03808c5676a8078fe583e46497015416935f604051958694859363022f65e760e31b8552600485015260248401528160448401525af19081156106cf575f9161069d575b506105a181611362565b5080811561068f575b60408051916105b982846110a8565b600183526020830190601f19830136833783511561067b5781525f5160206115425f395f51905f52546001600160a01b031690813b15610677578251637d6e912360e11b815260206004820152935160248501819052849160448301915f5b81811061065e5750505091815f81819503925af19081156106555750610640575b5060065580f35b61064d9192505f906110a8565b5f905f610639565b513d5f823e3d90fd5b8251845287945060209384019390920191600101610618565b5f80fd5b634e487b7160e01b5f52603260045260245ffd5b50610698611442565b6105aa565b90506020813d6020116106c7575b816106b8602093836110a8565b8101031261067757515f610597565b3d91506106ab565b6040513d5f823e3d90fd5b5060206106e5611442565b9050610534565b90506106f6611442565b9061052d565b90506020813d602011610726575b81610717602093836110a8565b8101031261067757515f61051d565b3d915061070a565b3461067757602036600319011261067757610747610fe2565b335f52600460205260ff60405f205416156107745761077290335f52600360205260405f2054611381565b005b60405162461bcd60e51b815260206004820152600f60248201526e4e6f7420616e20656d706c6f79656560881b6044820152606490fd5b34610677576020366003190112610677576107c4610fe2565b6107d860018060a01b035f5416331461106d565b6001600160a01b03165f818152600460205260409020546107fb9060ff166110ca565b805f52600460205260405f2060ff198154169055805f5260036020525f60408120556005545f5b818110610851575b827fabae6e64cb4315875c29d42347a312f5e9fce4ab564e9722b43dd78d0751135a5f80a2005b8261085b82610fca565b905460039190911b1c6001600160a01b03161461087a57600101610822565b5f198201918211610916576108ac6108946108d093610fca565b905460039190911b1c6001600160a01b031691610fca565b81546001600160a01b0393841660039290921b91821b9390911b1916919091179055565b6005548015610902575f19016108e581610fca565b81549060018060a01b039060031b1b19169055600555818061082a565b634e487b7160e01b5f52603160045260245ffd5b634e487b7160e01b5f52601160045260245ffd5b34610677576109886109826109af61094136611026565b9592949061095960018060a01b035f5416331461106d565b60018060a01b03861696875f52600460205261097b60ff60405f2054166110ca565b3691611107565b90611194565b9161099283611362565b505f546109a8906001600160a01b031684611381565b5082611381565b50815f52600360205260405f20557f39c3368b1934e984226bc34399cbcdf6cfaf6f59eaf71a3d43a6fe9e9cc71e086020604051428152a2005b34610677575f366003190112610677575f546040516001600160a01b039091168152602090f35b34610677575f366003190112610677576020600554604051908152f35b34610677575f366003190112610677576020600854604051908152f35b34610677575f366003190112610677576020610a64611413565b604051908152f35b3461067757610a7a36611026565b9291610a9060018060a01b035f5416331461106d565b6001600160a01b0383165f8181526004602052604090205490949060ff16610bb95760646005541015610b7d57610acc92610982913691611107565b610ad581611362565b505f54610aeb906001600160a01b031682611381565b50610af68282611381565b50825f52600360205260405f2055815f52600460205260405f20600160ff198254161790556005549068010000000000000000821015610b69576108ac826001610b439401600555610fca565b7f041109cfe10cfa549abb66b986d0a294ecc6c9ad39000abcb9c2afd422c8bd645f80a2005b634e487b7160e01b5f52604160045260245ffd5b60405162461bcd60e51b8152602060048201526014602482015273115b5c1b1bde59594818d85c081c995858da195960621b6044820152606490fd5b60405162461bcd60e51b8152602060048201526012602482015271105b1c9958591e481c9959da5cdd195c995960721b6044820152606490fd5b3461067757608036600319011261067757610c0c610fe2565b60443567ffffffffffffffff811161067757610c2c903690600401610ff8565b91906064359167ffffffffffffffff8311610677576020610d1b91610c9b610c5b610c93963690600401610ff8565b969095610c7260018060a01b035f5416331461106d565b60018060a01b03841698895f526004865261097b60ff60405f2054166110ca565b602435611194565b90610ca582611362565b505f54610cbb906001600160a01b031683611381565b50610cc68183611381565b50600154610cdd906001600160a01b0316836113a8565b50600154604051637d32e7bd60e01b81526001600160a01b0392831660048201526024810193909352919384929091169082905f9082906044820190565b03925af180156106cf57610e15575b50600254604051635d3badaf60e11b81526004810185905242602482015260606044820152929060209084906001600160a01b0316815f81610d7060648201888a611174565b03925af180156106cf57610dc4575b7ffd62ea5e17dc624f02dc719d6847a7df214da7495b396f1084c728bc90190d749250610dbf604051928392428452604060208501526040840191611174565b0390a2005b6020833d602011610e0d575b81610ddd602093836110a8565b81010312610677577ffd62ea5e17dc624f02dc719d6847a7df214da7495b396f1084c728bc90190d749250610d7f565b3d9150610dd0565b610e2d9060203d60201161035a5761034d81836110a8565b610d2a565b34610677575f366003190112610677576040518060206005549283815201809260055f527f036b6384b5eca791c62761152d0c79bb0604c104a5fb6f4eb0703f3154bb3db0905f5b818110610edb5750505081610e909103826110a8565b604051918291602083019060208452518091526040830191905f5b818110610eb9575050500390f35b82516001600160a01b0316845285945060209384019390920191600101610eab565b82546001600160a01b0316845260209093019260019283019201610e7a565b34610677575f366003190112610677576002546040516001600160a01b039091168152602090f35b346106775760203660031901126106775760043560055481101561067757610f4b602091610fca565b905460405160039290921b1c6001600160a01b03168152f35b34610677575f36600319011261067757602060405160648152f35b34610677575f36600319011261067757610fa360018060a01b035f5416331461106d565b6020600654604051908152f35b34610677575f366003190112610677576020906007548152f35b60055481101561067b5760055f5260205f2001905f90565b600435906001600160a01b038216820361067757565b9181601f840112156106775782359167ffffffffffffffff8311610677576020838186019501011161067757565b6060600319820112610677576004356001600160a01b03811681036106775791602435916044359067ffffffffffffffff82116106775761106991600401610ff8565b9091565b1561107457565b60405162461bcd60e51b815260206004820152600c60248201526b2737ba1032b6b83637bcb2b960a11b6044820152606490fd5b90601f8019910116810190811067ffffffffffffffff821117610b6957604052565b156110d157565b60405162461bcd60e51b815260206004820152600e60248201526d139bdd081c9959da5cdd195c995960921b6044820152606490fd5b92919267ffffffffffffffff8211610b695760405191611131601f8201601f1916602001846110a8565b829481845281830111610677578281602093845f960137010152565b90816020910312610677575180151581036106775790565b90816020910312610677575190565b908060209392818452848401375f828201840152601f01601f1916010190565b8151156112c657602091829160018060a01b037f9e7b61f58c47dc699ac88507c4f5bb9f121c03808c5676a8078fe583e46497015416905f60a460405180978196829563045fc19560e11b84526004840152336024840152608060448401528051918291826084860152018484015e818101830184905260056064830152601f01601f191681010301925af19081156106cf575f91611294575b505f5160206115425f395f51905f52546001600160a01b0316803b1561067757604051630f8e573b60e21b815260048101839052336024820152905f908290818381604481015b03925af180156106cf57611287575090565b5f611291916110a8565b90565b90506020813d6020116112be575b816112af602093836110a8565b8101031261067757515f61122e565b3d91506112a2565b80915015611359575f5160206115425f395f51905f52546040516382027b6d60e01b81526004810183905233602482015290602090829060449082906001600160a01b03165afa9081156106cf575f9161133a575b50156113245790565b630276b5d960e01b5f526004523360245260445ffd5b611353915060203d60201161035a5761034d81836110a8565b5f61131b565b50611291611442565b8015611373575b61129130826114d7565b5061137c611442565b611369565b908115611393575b61129190826114d7565b90506112916113a0611442565b919050611389565b908115611403575b5f5160206115425f395f51905f52546001600160a01b0316803b1561067757604051630f8e573b60e21b8152600481018490526001600160a01b0390921660248301525f90829081838160448101611275565b905061140d611442565b906113b0565b4660010361142057600190565b4662aa36a7036114305761271190565b617a69461461143d575f90565b5f1990565b7f9e7b61f58c47dc699ac88507c4f5bb9f121c03808c5676a8078fe583e464970154604051639cd07acb60e01b81525f60048201819052600560248301529091602091839160449183916001600160a01b03165af19081156106cf575f916114a8575090565b90506020813d6020116114cf575b816114c3602093836110a8565b81010312610677575190565b3d91506114b6565b5f5160206115425f395f51905f52546001600160a01b031691823b1561067757604051635ca4b5b160e11b815260048101929092526001600160a01b03166024820152905f908290604490829084905af180156106cf576115355750565b5f61153f916110a8565b56fe9e7b61f58c47dc699ac88507c4f5bb9f121c03808c5676a8078fe583e4649700a264697066735822122011f2a094b7a6604cfb01d986eb132eba787e21267faa1f551bf6981e76dbc0dd64736f6c634300081c0033a2646970667358221220a6a49023dfdb9cdc672aa306183d43f935cf4f3a5a9465b10153c3549b63a34964736f6c634300081c0033",
  "devdoc": {
    "kind": "dev",
    "methods": {},
    "version": 1
  },
  "userdoc": {
    "kind": "user",
    "methods": {},
    "version": 1
  },
  "storageLayout": {
    "storage": [
      {
        "astId": 51473,
        "contract": "contracts/PayrollFactory.sol:PayrollFactory",
        "label": "deploymentFee",
        "offset": 0,
        "slot": "0",
        "type": "t_uint256"
      },
      {
        "astId": 51478,
        "contract": "contracts/PayrollFactory.sol:PayrollFactory",
        "label": "employerContracts",
        "offset": 0,
        "slot": "1",
        "type": "t_mapping(t_address,t_array(t_address)dyn_storage)"
      },
      {
        "astId": 51481,
        "contract": "contracts/PayrollFactory.sol:PayrollFactory",
        "label": "allContracts",
        "offset": 0,
        "slot": "2",
        "type": "t_array(t_address)dyn_storage"
      }
    ],
    "types": {
      "t_address": {
        "encoding": "inplace",
        "label": "address",
        "numberOfBytes": "20"
      },
      "t_array(t_address)dyn_storage": {
        "base": "t_address",
        "encoding": "dynamic_array",
        "label": "address[]",
        "numberOfBytes": "32"
      },
      "t_mapping(t_address,t_array(t_address)dyn_storage)": {
        "encoding": "mapping",
        "key": "t_address",
        "label": "mapping(address => address[])",
        "numberOfBytes": "32",
        "value": "t_array(t_address)dyn_storage"
      },
      "t_uint256": {
        "encoding": "inplace",
        "label": "uint256",
        "numberOfBytes": "32"
      }
    }
  }
}